{
  "contractName": "AdditionGame",
  "abi": [
    {
      "inputs": [],
      "stateMutability": "nonpayable",
      "type": "constructor"
    },
    {
      "inputs": [],
      "name": "owner",
      "outputs": [
        {
          "internalType": "address payable",
          "name": "",
          "type": "address"
        }
      ],
      "stateMutability": "view",
      "type": "function",
      "constant": true
    },
    {
      "inputs": [],
      "name": "getBalance",
      "outputs": [
        {
          "internalType": "uint256",
          "name": "",
          "type": "uint256"
        }
      ],
      "stateMutability": "view",
      "type": "function",
      "constant": true
    },
    {
      "inputs": [],
      "name": "deposit",
      "outputs": [],
      "stateMutability": "payable",
      "type": "function",
      "payable": true
    },
    {
      "inputs": [
        {
          "internalType": "uint256",
          "name": "_value",
          "type": "uint256"
        }
      ],
      "name": "transfer",
      "outputs": [
        {
          "internalType": "bool",
          "name": "",
          "type": "bool"
        }
      ],
      "stateMutability": "nonpayable",
      "type": "function"
    }
  ],
  "bytecode": "0x608060405234801561001057600080fd5b50336000806101000a81548173ffffffffffffffffffffffffffffffffffffffff021916908373ffffffffffffffffffffffffffffffffffffffff160217905550610347806100606000396000f3fe60806040526004361061003f5760003560e01c806312065fe01461004457806312514bba1461006f5780638da5cb5b146100ac578063d0e30db0146100d7575b600080fd5b34801561005057600080fd5b506100596100e1565b6040516100669190610206565b60405180910390f35b34801561007b57600080fd5b5061009660048036038101906100919190610252565b6100e9565b6040516100a3919061029a565b60405180910390f35b3480156100b857600080fd5b506100c161016f565b6040516100ce91906102f6565b60405180910390f35b6100df610193565b005b600047905090565b6000816100f46100e1565b10156100ff57600080fd5b60008054906101000a900473ffffffffffffffffffffffffffffffffffffffff1673ffffffffffffffffffffffffffffffffffffffff166108fc839081150290604051600060405180830381858888f19350505050158015610165573d6000803e3d6000fd5b5060019050919050565b60008054906101000a900473ffffffffffffffffffffffffffffffffffffffff1681565b60008054906101000a900473ffffffffffffffffffffffffffffffffffffffff1673ffffffffffffffffffffffffffffffffffffffff163373ffffffffffffffffffffffffffffffffffffffff16146101eb57600080fd5b565b6000819050919050565b610200816101ed565b82525050565b600060208201905061021b60008301846101f7565b92915050565b600080fd5b61022f816101ed565b811461023a57600080fd5b50565b60008135905061024c81610226565b92915050565b60006020828403121561026857610267610221565b5b60006102768482850161023d565b91505092915050565b60008115159050919050565b6102948161027f565b82525050565b60006020820190506102af600083018461028b565b92915050565b600073ffffffffffffffffffffffffffffffffffffffff82169050919050565b60006102e0826102b5565b9050919050565b6102f0816102d5565b82525050565b600060208201905061030b60008301846102e7565b9291505056fea264697066735822122095d520f61af75d7d278656132e42687ce6579c9a76e679419c1f9be24681cd5864736f6c634300080d0033",
  "immutableReferences": {},
  "source": "// SPDX-License-Identifier: GPL-3.0\r\npragma solidity >=0.8.0 <0.9.0;\r\n\r\ncontract AdditionGame {\r\n    address payable public owner;\r\n\r\n    constructor() {\r\n        owner = payable(msg.sender);\r\n    }\r\n\r\n    function getBalance() public view returns (uint) {\r\n        return address(this).balance;\r\n    }\r\n\r\n    function deposit() public payable {\r\n        require(msg.sender == owner);\r\n    }\r\n\r\n    function transfer(uint _value) public returns (bool) {\r\n        require(getBalance() >= _value);\r\n        owner.transfer(_value);\r\n        return true;\r\n    }\r\n}",
  "sourcePath": "D:\\Works\\github.com\\ariars\\blockchain\\02.Klaytn\\03.Contract\\contracts\\AdditionGame.sol",
  "compiler": {
    "name": "solc",
    "version": "0.8.13+commit.abaa5c0e.Emscripten.clang"
  },
  "schemaVersion": "3.4.14",
  "updatedAt": "2023-08-07T10:43:03.998Z",
  "networkType": "ethereum",
  "devdoc": {
    "kind": "dev",
    "methods": {},
    "version": 1
  },
  "userdoc": {
    "kind": "user",
    "methods": {},
    "version": 1
  }
}