{
  "contractName": "RealEstate",
  "abi": [
    {
      "inputs": [],
      "stateMutability": "nonpayable",
      "type": "constructor"
    },
    {
      "anonymous": false,
      "inputs": [
        {
          "indexed": false,
          "internalType": "address",
          "name": "_buyer",
          "type": "address"
        },
        {
          "indexed": false,
          "internalType": "uint256",
          "name": "_id",
          "type": "uint256"
        }
      ],
      "name": "LogBuyRealEstate",
      "type": "event"
    },
    {
      "inputs": [
        {
          "internalType": "uint256",
          "name": "",
          "type": "uint256"
        }
      ],
      "name": "buyerInfo",
      "outputs": [
        {
          "internalType": "address",
          "name": "buyerAddress",
          "type": "address"
        },
        {
          "internalType": "bytes32",
          "name": "name",
          "type": "bytes32"
        },
        {
          "internalType": "uint256",
          "name": "age",
          "type": "uint256"
        }
      ],
      "stateMutability": "view",
      "type": "function",
      "constant": true
    },
    {
      "inputs": [
        {
          "internalType": "uint256",
          "name": "",
          "type": "uint256"
        }
      ],
      "name": "buyers",
      "outputs": [
        {
          "internalType": "address",
          "name": "",
          "type": "address"
        }
      ],
      "stateMutability": "view",
      "type": "function",
      "constant": true
    },
    {
      "inputs": [],
      "name": "owner",
      "outputs": [
        {
          "internalType": "address payable",
          "name": "",
          "type": "address"
        }
      ],
      "stateMutability": "view",
      "type": "function",
      "constant": true
    },
    {
      "inputs": [
        {
          "internalType": "uint256",
          "name": "_id",
          "type": "uint256"
        },
        {
          "internalType": "bytes32",
          "name": "_name",
          "type": "bytes32"
        },
        {
          "internalType": "uint256",
          "name": "_age",
          "type": "uint256"
        }
      ],
      "name": "buyRealEstate",
      "outputs": [],
      "stateMutability": "payable",
      "type": "function",
      "payable": true
    },
    {
      "inputs": [
        {
          "internalType": "uint256",
          "name": "_id",
          "type": "uint256"
        }
      ],
      "name": "getBuyerInfo",
      "outputs": [
        {
          "internalType": "address",
          "name": "",
          "type": "address"
        },
        {
          "internalType": "bytes32",
          "name": "",
          "type": "bytes32"
        },
        {
          "internalType": "uint256",
          "name": "",
          "type": "uint256"
        }
      ],
      "stateMutability": "view",
      "type": "function",
      "constant": true
    },
    {
      "inputs": [],
      "name": "getAllBuyers",
      "outputs": [
        {
          "internalType": "address[10]",
          "name": "",
          "type": "address[10]"
        }
      ],
      "stateMutability": "view",
      "type": "function",
      "constant": true
    }
  ],
  "bytecode": "0x608060405234801561001057600080fd5b5033600160006101000a81548173ffffffffffffffffffffffffffffffffffffffff021916908373ffffffffffffffffffffffffffffffffffffffff160217905550610867806100616000396000f3fe6080604052600436106100555760003560e01c806332d0c15f1461005a5780635aee87031461007657806386cba22b146100b55780638da5cb5b146100e0578063e377e9661461010b578063f2aa82181461014a575b600080fd5b610074600480360381019061006f91906105a5565b610187565b005b34801561008257600080fd5b5061009d600480360381019061009891906105f8565b61033e565b6040516100ac93929190610684565b60405180910390f35b3480156100c157600080fd5b506100ca6103ea565b6040516100d79190610766565b60405180910390f35b3480156100ec57600080fd5b506100f561046b565b60405161010291906107a3565b60405180910390f35b34801561011757600080fd5b50610132600480360381019061012d91906105f8565b610491565b60405161014193929190610684565b60405180910390f35b34801561015657600080fd5b50610171600480360381019061016c91906105f8565b6104db565b60405161017e91906107be565b60405180910390f35b60008310158015610199575060098311155b6101a257600080fd5b33600284600a81106101b7576101b66107d9565b5b0160006101000a81548173ffffffffffffffffffffffffffffffffffffffff021916908373ffffffffffffffffffffffffffffffffffffffff16021790555060405180606001604052803373ffffffffffffffffffffffffffffffffffffffff1681526020018381526020018281525060008085815260200190815260200160002060008201518160000160006101000a81548173ffffffffffffffffffffffffffffffffffffffff021916908373ffffffffffffffffffffffffffffffffffffffff1602179055506020820151816001015560408201518160020155905050600160009054906101000a900473ffffffffffffffffffffffffffffffffffffffff1673ffffffffffffffffffffffffffffffffffffffff166108fc349081150290604051600060405180830381858888f193505050501580156102ff573d6000803e3d6000fd5b507f0868a2b77ef5243ab424f87952a349bc823a92fd01d9b45d2fec78b8eafb586b3384604051610331929190610808565b60405180910390a1505050565b6000806000806000808681526020019081526020016000206040518060600160405290816000820160009054906101000a900473ffffffffffffffffffffffffffffffffffffffff1673ffffffffffffffffffffffffffffffffffffffff1673ffffffffffffffffffffffffffffffffffffffff168152602001600182015481526020016002820154815250509050806000015181602001518260400151935093509350509193909250565b6103f2610511565b6002600a806020026040519081016040528092919082600a8015610461576020028201915b8160009054906101000a900473ffffffffffffffffffffffffffffffffffffffff1673ffffffffffffffffffffffffffffffffffffffff1681526020019060010190808311610417575b5050505050905090565b600160009054906101000a900473ffffffffffffffffffffffffffffffffffffffff1681565b60006020528060005260406000206000915090508060000160009054906101000a900473ffffffffffffffffffffffffffffffffffffffff16908060010154908060020154905083565b600281600a81106104eb57600080fd5b016000915054906101000a900473ffffffffffffffffffffffffffffffffffffffff1681565b604051806101400160405280600a90602082028036833780820191505090505090565b600080fd5b6000819050919050565b61054c81610539565b811461055757600080fd5b50565b60008135905061056981610543565b92915050565b6000819050919050565b6105828161056f565b811461058d57600080fd5b50565b60008135905061059f81610579565b92915050565b6000806000606084860312156105be576105bd610534565b5b60006105cc8682870161055a565b93505060206105dd86828701610590565b92505060406105ee8682870161055a565b9150509250925092565b60006020828403121561060e5761060d610534565b5b600061061c8482850161055a565b91505092915050565b600073ffffffffffffffffffffffffffffffffffffffff82169050919050565b600061065082610625565b9050919050565b61066081610645565b82525050565b61066f8161056f565b82525050565b61067e81610539565b82525050565b60006060820190506106996000830186610657565b6106a66020830185610666565b6106b36040830184610675565b949350505050565b6000600a9050919050565b600081905092915050565b6000819050919050565b6106e481610645565b82525050565b60006106f683836106db565b60208301905092915050565b6000602082019050919050565b610718816106bb565b61072281846106c6565b925061072d826106d1565b8060005b8381101561075e57815161074587826106ea565b965061075083610702565b925050600181019050610731565b505050505050565b60006101408201905061077c600083018461070f565b92915050565b600061078d82610625565b9050919050565b61079d81610782565b82525050565b60006020820190506107b86000830184610794565b92915050565b60006020820190506107d36000830184610657565b92915050565b7f4e487b7100000000000000000000000000000000000000000000000000000000600052603260045260246000fd5b600060408201905061081d6000830185610657565b61082a6020830184610675565b939250505056fea2646970667358221220f1c8e345820f5057cde38f646558f6c4ad91c0b9e85767e80b62f7d09df450e464736f6c634300080d0033",
  "immutableReferences": {},
  "source": "// SPDX-License-Identifier: GPL-3.0\r\npragma solidity >=0.8.0 <0.9.0;\r\n\r\ncontract RealEstate {\r\n    struct Buyer {\r\n        address buyerAddress;\r\n        bytes32 name;\r\n        uint age;\r\n    }\r\n    \r\n    mapping(uint => Buyer) public buyerInfo;\r\n    // 9862   \r\n    // address public owner;\r\n    address payable public owner;\r\n    address[10] public buyers;\r\n\r\n    event LogBuyRealEstate(\r\n        address _buyer,\r\n        uint _id\r\n    );\r\n\r\n    constructor() {\r\n        // 9862   \r\n        // owner = msg.sender;\r\n        owner = payable(msg.sender);\r\n    }\r\n\r\n    function buyRealEstate(uint _id, bytes32 _name, uint _age) public payable {\r\n        //  \r\n        require(_id >= 0 && _id <= 9);\r\n        buyers[_id] = msg.sender;\r\n        buyerInfo[_id] = Buyer(msg.sender, _name, _age);\r\n        \r\n        owner.transfer(msg.value);\r\n        emit LogBuyRealEstate(msg.sender, _id);\r\n    }\r\n\r\n    function getBuyerInfo(uint _id) public view returns (address, bytes32, uint) {\r\n        Buyer memory buyer = buyerInfo[_id];\r\n        return (buyer.buyerAddress, buyer.name, buyer.age);\r\n    }\r\n\r\n    function getAllBuyers() public view returns (address[10] memory) {\r\n        return buyers;\r\n    }\r\n}",
  "sourcePath": "D:\\Works\\github.com\\ariars\\blockchain\\01.RealEstate-Dapp\\05.RealEstate\\contracts\\RealEstate.sol",
  "compiler": {
    "name": "solc",
    "version": "0.8.13+commit.abaa5c0e.Emscripten.clang"
  },
  "schemaVersion": "3.4.14",
  "updatedAt": "2023-08-02T05:50:03.534Z",
  "networkType": "ethereum",
  "devdoc": {
    "kind": "dev",
    "methods": {},
    "version": 1
  },
  "userdoc": {
    "kind": "user",
    "methods": {},
    "version": 1
  }
}