{
  "contractName": "RealEstate",
  "abi": [
    {
      "inputs": [],
      "stateMutability": "nonpayable",
      "type": "constructor"
    },
    {
      "inputs": [
        {
          "internalType": "uint256",
          "name": "",
          "type": "uint256"
        }
      ],
      "name": "buyerInfo",
      "outputs": [
        {
          "internalType": "address",
          "name": "buyerAddress",
          "type": "address"
        },
        {
          "internalType": "bytes32",
          "name": "name",
          "type": "bytes32"
        },
        {
          "internalType": "uint256",
          "name": "age",
          "type": "uint256"
        }
      ],
      "stateMutability": "view",
      "type": "function",
      "constant": true
    },
    {
      "inputs": [
        {
          "internalType": "uint256",
          "name": "",
          "type": "uint256"
        }
      ],
      "name": "buyers",
      "outputs": [
        {
          "internalType": "address",
          "name": "",
          "type": "address"
        }
      ],
      "stateMutability": "view",
      "type": "function",
      "constant": true
    },
    {
      "inputs": [
        {
          "internalType": "uint256",
          "name": "_id",
          "type": "uint256"
        },
        {
          "internalType": "bytes32",
          "name": "_name",
          "type": "bytes32"
        },
        {
          "internalType": "uint256",
          "name": "_age",
          "type": "uint256"
        }
      ],
      "name": "buyRealEstate",
      "outputs": [],
      "stateMutability": "payable",
      "type": "function",
      "payable": true
    }
  ],
  "bytecode": "0x608060405234801561001057600080fd5b5033600160006101000a81548173ffffffffffffffffffffffffffffffffffffffff021916908373ffffffffffffffffffffffffffffffffffffffff1602179055506104d6806100616000396000f3fe6080604052600436106100345760003560e01c806332d0c15f14610039578063e377e96614610055578063f2aa821814610094575b600080fd5b610053600480360381019061004e9190610340565b6100d1565b005b34801561006157600080fd5b5061007c60048036038101906100779190610393565b61024f565b60405161008b9392919061041f565b60405180910390f35b3480156100a057600080fd5b506100bb60048036038101906100b69190610393565b610299565b6040516100c89190610456565b60405180910390f35b600083101580156100e3575060098311155b6100ec57600080fd5b33600284600a811061010157610100610471565b5b0160006101000a81548173ffffffffffffffffffffffffffffffffffffffff021916908373ffffffffffffffffffffffffffffffffffffffff16021790555060405180606001604052803373ffffffffffffffffffffffffffffffffffffffff1681526020018381526020018281525060008085815260200190815260200160002060008201518160000160006101000a81548173ffffffffffffffffffffffffffffffffffffffff021916908373ffffffffffffffffffffffffffffffffffffffff1602179055506020820151816001015560408201518160020155905050600160009054906101000a900473ffffffffffffffffffffffffffffffffffffffff1673ffffffffffffffffffffffffffffffffffffffff166108fc349081150290604051600060405180830381858888f19350505050158015610249573d6000803e3d6000fd5b50505050565b60006020528060005260406000206000915090508060000160009054906101000a900473ffffffffffffffffffffffffffffffffffffffff16908060010154908060020154905083565b600281600a81106102a957600080fd5b016000915054906101000a900473ffffffffffffffffffffffffffffffffffffffff1681565b600080fd5b6000819050919050565b6102e7816102d4565b81146102f257600080fd5b50565b600081359050610304816102de565b92915050565b6000819050919050565b61031d8161030a565b811461032857600080fd5b50565b60008135905061033a81610314565b92915050565b600080600060608486031215610359576103586102cf565b5b6000610367868287016102f5565b93505060206103788682870161032b565b9250506040610389868287016102f5565b9150509250925092565b6000602082840312156103a9576103a86102cf565b5b60006103b7848285016102f5565b91505092915050565b600073ffffffffffffffffffffffffffffffffffffffff82169050919050565b60006103eb826103c0565b9050919050565b6103fb816103e0565b82525050565b61040a8161030a565b82525050565b610419816102d4565b82525050565b600060608201905061043460008301866103f2565b6104416020830185610401565b61044e6040830184610410565b949350505050565b600060208201905061046b60008301846103f2565b92915050565b7f4e487b7100000000000000000000000000000000000000000000000000000000600052603260045260246000fdfea264697066735822122076adc48009329d144db4e457c92dcea64b54522749d58fbfd5af116c0212afa364736f6c634300080d0033",
  "immutableReferences": {},
  "source": "// SPDX-License-Identifier: GPL-3.0\r\npragma solidity >=0.8.0 <0.9.0;\r\n\r\ncontract RealEstate {\r\n    struct Buyer {\r\n        address buyerAddress;\r\n        bytes32 name;\r\n        uint age;\r\n    }\r\n    \r\n    mapping(uint => Buyer) public buyerInfo;\r\n    // 9862   \r\n    // address public owner;\r\n    address payable owner;\r\n    address[10] public buyers;\r\n\r\n    constructor() {\r\n        // 9862   \r\n        // owner = msg.sender;\r\n        owner = payable(msg.sender);\r\n    }\r\n\r\n    function buyRealEstate(uint _id, bytes32 _name, uint _age) public payable {\r\n        //  \r\n        require(_id >= 0 && _id <= 9);\r\n        buyers[_id] = msg.sender;\r\n        buyerInfo[_id] = Buyer(msg.sender, _name, _age);\r\n\r\n        owner.transfer(msg.value);\r\n    }\r\n}",
  "sourcePath": "D:\\Works\\github.com\\ariars\\blockchain\\01.RealEstate-Dapp\\05.RealEstate\\contracts\\RealEstate.sol",
  "compiler": {
    "name": "solc",
    "version": "0.8.13+commit.abaa5c0e.Emscripten.clang"
  },
  "schemaVersion": "3.4.14",
  "updatedAt": "2023-07-29T03:47:37.876Z",
  "networkType": "ethereum",
  "devdoc": {
    "kind": "dev",
    "methods": {},
    "version": 1
  },
  "userdoc": {
    "kind": "user",
    "methods": {},
    "version": 1
  }
}