{
  "contractName": "RealEstate",
  "abi": [
    {
      "inputs": [],
      "stateMutability": "nonpayable",
      "type": "constructor"
    },
    {
      "anonymous": false,
      "inputs": [
        {
          "indexed": false,
          "internalType": "address",
          "name": "_buyer",
          "type": "address"
        },
        {
          "indexed": false,
          "internalType": "uint256",
          "name": "_id",
          "type": "uint256"
        }
      ],
      "name": "LogBuyRealEstate",
      "type": "event"
    },
    {
      "inputs": [
        {
          "internalType": "uint256",
          "name": "",
          "type": "uint256"
        }
      ],
      "name": "buyerInfo",
      "outputs": [
        {
          "internalType": "address",
          "name": "buyerAddress",
          "type": "address"
        },
        {
          "internalType": "bytes32",
          "name": "name",
          "type": "bytes32"
        },
        {
          "internalType": "uint256",
          "name": "age",
          "type": "uint256"
        }
      ],
      "stateMutability": "view",
      "type": "function",
      "constant": true
    },
    {
      "inputs": [
        {
          "internalType": "uint256",
          "name": "",
          "type": "uint256"
        }
      ],
      "name": "buyers",
      "outputs": [
        {
          "internalType": "address",
          "name": "",
          "type": "address"
        }
      ],
      "stateMutability": "view",
      "type": "function",
      "constant": true
    },
    {
      "inputs": [
        {
          "internalType": "uint256",
          "name": "_id",
          "type": "uint256"
        },
        {
          "internalType": "bytes32",
          "name": "_name",
          "type": "bytes32"
        },
        {
          "internalType": "uint256",
          "name": "_age",
          "type": "uint256"
        }
      ],
      "name": "buyRealEstate",
      "outputs": [],
      "stateMutability": "payable",
      "type": "function",
      "payable": true
    },
    {
      "inputs": [
        {
          "internalType": "uint256",
          "name": "_id",
          "type": "uint256"
        }
      ],
      "name": "getBuyerInfo",
      "outputs": [
        {
          "internalType": "address",
          "name": "",
          "type": "address"
        },
        {
          "internalType": "bytes32",
          "name": "",
          "type": "bytes32"
        },
        {
          "internalType": "uint256",
          "name": "",
          "type": "uint256"
        }
      ],
      "stateMutability": "view",
      "type": "function",
      "constant": true
    },
    {
      "inputs": [],
      "name": "getAllBuyers",
      "outputs": [
        {
          "internalType": "address[10]",
          "name": "",
          "type": "address[10]"
        }
      ],
      "stateMutability": "view",
      "type": "function",
      "constant": true
    }
  ],
  "bytecode": "0x608060405234801561001057600080fd5b5033600160006101000a81548173ffffffffffffffffffffffffffffffffffffffff021916908373ffffffffffffffffffffffffffffffffffffffff1602179055506107cf806100616000396000f3fe60806040526004361061004a5760003560e01c806332d0c15f1461004f5780635aee87031461006b57806386cba22b146100aa578063e377e966146100d5578063f2aa821814610114575b600080fd5b61006960048036038101906100649190610549565b610151565b005b34801561007757600080fd5b50610092600480360381019061008d919061059c565b610308565b6040516100a193929190610628565b60405180910390f35b3480156100b657600080fd5b506100bf6103b4565b6040516100cc919061070a565b60405180910390f35b3480156100e157600080fd5b506100fc60048036038101906100f7919061059c565b610435565b60405161010b93929190610628565b60405180910390f35b34801561012057600080fd5b5061013b6004803603810190610136919061059c565b61047f565b6040516101489190610726565b60405180910390f35b60008310158015610163575060098311155b61016c57600080fd5b33600284600a811061018157610180610741565b5b0160006101000a81548173ffffffffffffffffffffffffffffffffffffffff021916908373ffffffffffffffffffffffffffffffffffffffff16021790555060405180606001604052803373ffffffffffffffffffffffffffffffffffffffff1681526020018381526020018281525060008085815260200190815260200160002060008201518160000160006101000a81548173ffffffffffffffffffffffffffffffffffffffff021916908373ffffffffffffffffffffffffffffffffffffffff1602179055506020820151816001015560408201518160020155905050600160009054906101000a900473ffffffffffffffffffffffffffffffffffffffff1673ffffffffffffffffffffffffffffffffffffffff166108fc349081150290604051600060405180830381858888f193505050501580156102c9573d6000803e3d6000fd5b507f0868a2b77ef5243ab424f87952a349bc823a92fd01d9b45d2fec78b8eafb586b33846040516102fb929190610770565b60405180910390a1505050565b6000806000806000808681526020019081526020016000206040518060600160405290816000820160009054906101000a900473ffffffffffffffffffffffffffffffffffffffff1673ffffffffffffffffffffffffffffffffffffffff1673ffffffffffffffffffffffffffffffffffffffff168152602001600182015481526020016002820154815250509050806000015181602001518260400151935093509350509193909250565b6103bc6104b5565b6002600a806020026040519081016040528092919082600a801561042b576020028201915b8160009054906101000a900473ffffffffffffffffffffffffffffffffffffffff1673ffffffffffffffffffffffffffffffffffffffff16815260200190600101908083116103e1575b5050505050905090565b60006020528060005260406000206000915090508060000160009054906101000a900473ffffffffffffffffffffffffffffffffffffffff16908060010154908060020154905083565b600281600a811061048f57600080fd5b016000915054906101000a900473ffffffffffffffffffffffffffffffffffffffff1681565b604051806101400160405280600a90602082028036833780820191505090505090565b600080fd5b6000819050919050565b6104f0816104dd565b81146104fb57600080fd5b50565b60008135905061050d816104e7565b92915050565b6000819050919050565b61052681610513565b811461053157600080fd5b50565b6000813590506105438161051d565b92915050565b600080600060608486031215610562576105616104d8565b5b6000610570868287016104fe565b935050602061058186828701610534565b9250506040610592868287016104fe565b9150509250925092565b6000602082840312156105b2576105b16104d8565b5b60006105c0848285016104fe565b91505092915050565b600073ffffffffffffffffffffffffffffffffffffffff82169050919050565b60006105f4826105c9565b9050919050565b610604816105e9565b82525050565b61061381610513565b82525050565b610622816104dd565b82525050565b600060608201905061063d60008301866105fb565b61064a602083018561060a565b6106576040830184610619565b949350505050565b6000600a9050919050565b600081905092915050565b6000819050919050565b610688816105e9565b82525050565b600061069a838361067f565b60208301905092915050565b6000602082019050919050565b6106bc8161065f565b6106c6818461066a565b92506106d182610675565b8060005b838110156107025781516106e9878261068e565b96506106f4836106a6565b9250506001810190506106d5565b505050505050565b60006101408201905061072060008301846106b3565b92915050565b600060208201905061073b60008301846105fb565b92915050565b7f4e487b7100000000000000000000000000000000000000000000000000000000600052603260045260246000fd5b600060408201905061078560008301856105fb565b6107926020830184610619565b939250505056fea2646970667358221220a4da57b4a88b28d13b4822aa53684f9787157532858e3dc34e071e9287506d9c64736f6c634300080d0033",
  "immutableReferences": {},
  "source": "// SPDX-License-Identifier: GPL-3.0\r\npragma solidity >=0.8.0 <0.9.0;\r\n\r\ncontract RealEstate {\r\n    struct Buyer {\r\n        address buyerAddress;\r\n        bytes32 name;\r\n        uint age;\r\n    }\r\n    \r\n    mapping(uint => Buyer) public buyerInfo;\r\n    // 9862   \r\n    // address public owner;\r\n    address payable owner;\r\n    address[10] public buyers;\r\n\r\n    event LogBuyRealEstate(\r\n        address _buyer,\r\n        uint _id\r\n    );\r\n\r\n    constructor() {\r\n        // 9862   \r\n        // owner = msg.sender;\r\n        owner = payable(msg.sender);\r\n    }\r\n\r\n    function buyRealEstate(uint _id, bytes32 _name, uint _age) public payable {\r\n        //  \r\n        require(_id >= 0 && _id <= 9);\r\n        buyers[_id] = msg.sender;\r\n        buyerInfo[_id] = Buyer(msg.sender, _name, _age);\r\n        \r\n        owner.transfer(msg.value);\r\n        emit LogBuyRealEstate(msg.sender, _id);\r\n    }\r\n\r\nfunction getBuyerInfo(uint _id) public view returns (address, bytes32, uint) {\r\n    Buyer memory buyer = buyerInfo[_id];\r\n    return (buyer.buyerAddress, buyer.name, buyer.age);\r\n}\r\n\r\nfunction getAllBuyers() public view returns (address[10] memory) {\r\n    return buyers;\r\n}\r\n}",
  "sourcePath": "D:\\Works\\github.com\\ariars\\blockchain\\01.RealEstate-Dapp\\05.RealEstate\\contracts\\RealEstate.sol",
  "compiler": {
    "name": "solc",
    "version": "0.8.13+commit.abaa5c0e.Emscripten.clang"
  },
  "schemaVersion": "3.4.14",
  "updatedAt": "2023-07-29T11:30:52.679Z",
  "networkType": "ethereum",
  "devdoc": {
    "kind": "dev",
    "methods": {},
    "version": 1
  },
  "userdoc": {
    "kind": "user",
    "methods": {},
    "version": 1
  }
}