{
  "contractName": "MyContract",
  "abi": [
    {
      "inputs": [
        {
          "internalType": "uint256",
          "name": "_studentId",
          "type": "uint256"
        },
        {
          "internalType": "string",
          "name": "_name",
          "type": "string"
        },
        {
          "internalType": "string",
          "name": "_gender",
          "type": "string"
        },
        {
          "internalType": "uint256",
          "name": "_age",
          "type": "uint256"
        }
      ],
      "name": "setStudentInfo",
      "outputs": [],
      "stateMutability": "nonpayable",
      "type": "function"
    },
    {
      "inputs": [
        {
          "internalType": "uint256",
          "name": "_studentId",
          "type": "uint256"
        }
      ],
      "name": "getStudentInfo",
      "outputs": [
        {
          "internalType": "string",
          "name": "",
          "type": "string"
        },
        {
          "internalType": "string",
          "name": "",
          "type": "string"
        },
        {
          "internalType": "uint256",
          "name": "",
          "type": "uint256"
        }
      ],
      "stateMutability": "view",
      "type": "function",
      "constant": true
    }
  ],
  "bytecode": "0x608060405234801561001057600080fd5b506106bc806100206000396000f3fe608060405234801561001057600080fd5b50600436106100365760003560e01c806365a81d7d1461003b578063e1962c3b1461006d575b600080fd5b61005560048036038101906100509190610338565b610089565b6040516100649392919061040d565b60405180910390f35b61008760048036038101906100829190610587565b6101f3565b005b6060806000806000858152602001908152602001600020600001600080868152602001908152602001600020600101600080878152602001908152602001600020600201548280546100da90610655565b80601f016020809104026020016040519081016040528092919081815260200182805461010690610655565b80156101535780601f1061012857610100808354040283529160200191610153565b820191906000526020600020905b81548152906001019060200180831161013657829003601f168201915b5050505050925081805461016690610655565b80601f016020809104026020016040519081016040528092919081815260200182805461019290610655565b80156101df5780601f106101b4576101008083540402835291602001916101df565b820191906000526020600020905b8154815290600101906020018083116101c257829003601f168201915b505050505091509250925092509193909250565b600080600086815260200190815260200160002090508381600001908051906020019061022192919061024b565b508281600101908051906020019061023a92919061024b565b508181600201819055505050505050565b82805461025790610655565b90600052602060002090601f01602090048101928261027957600085556102c0565b82601f1061029257805160ff19168380011785556102c0565b828001600101855582156102c0579182015b828111156102bf5782518255916020019190600101906102a4565b5b5090506102cd91906102d1565b5090565b5b808211156102ea5760008160009055506001016102d2565b5090565b6000604051905090565b600080fd5b600080fd5b6000819050919050565b61031581610302565b811461032057600080fd5b50565b6000813590506103328161030c565b92915050565b60006020828403121561034e5761034d6102f8565b5b600061035c84828501610323565b91505092915050565b600081519050919050565b600082825260208201905092915050565b60005b8381101561039f578082015181840152602081019050610384565b838111156103ae576000848401525b50505050565b6000601f19601f8301169050919050565b60006103d082610365565b6103da8185610370565b93506103ea818560208601610381565b6103f3816103b4565b840191505092915050565b61040781610302565b82525050565b6000606082019050818103600083015261042781866103c5565b9050818103602083015261043b81856103c5565b905061044a60408301846103fe565b949350505050565b600080fd5b600080fd5b7f4e487b7100000000000000000000000000000000000000000000000000000000600052604160045260246000fd5b610494826103b4565b810181811067ffffffffffffffff821117156104b3576104b261045c565b5b80604052505050565b60006104c66102ee565b90506104d2828261048b565b919050565b600067ffffffffffffffff8211156104f2576104f161045c565b5b6104fb826103b4565b9050602081019050919050565b82818337600083830152505050565b600061052a610525846104d7565b6104bc565b90508281526020810184848401111561054657610545610457565b5b610551848285610508565b509392505050565b600082601f83011261056e5761056d610452565b5b813561057e848260208601610517565b91505092915050565b600080600080608085870312156105a1576105a06102f8565b5b60006105af87828801610323565b945050602085013567ffffffffffffffff8111156105d0576105cf6102fd565b5b6105dc87828801610559565b935050604085013567ffffffffffffffff8111156105fd576105fc6102fd565b5b61060987828801610559565b925050606061061a87828801610323565b91505092959194509250565b7f4e487b7100000000000000000000000000000000000000000000000000000000600052602260045260246000fd5b6000600282049050600182168061066d57607f821691505b6020821081036106805761067f610626565b5b5091905056fea264697066735822122091236ebdbac87a12c7dc5abe1b18e24c08c5d622afd8cd2b4acaf34ac997663264736f6c634300080d0033",
  "immutableReferences": {},
  "source": "// SPDX-License-Identifier: GPL-3.0\r\npragma solidity >=0.4.22 <0.9.0;\r\n\r\ncontract MyContract {\r\n    struct Student {\r\n        string name;\r\n        string gender;\r\n        uint age;\r\n    }\r\n\r\n    mapping(uint256 => Student) studentInfo;\r\n\r\n    function setStudentInfo(uint _studentId, string memory _name, string memory _gender, uint _age) public {\r\n        Student storage student = studentInfo[_studentId];\r\n\r\n        student.name = _name;\r\n        student.gender = _gender;\r\n        student.age = _age;\r\n    }\r\n\r\n    function getStudentInfo(uint256 _studentId) view public returns (string memory, string memory, uint) {\r\n        return (studentInfo[_studentId].name, studentInfo[_studentId].gender, studentInfo[_studentId].age);\r\n    }\r\n}",
  "sourcePath": "D:\\Study\\Infrun\\trupple\\contracts\\MyContract.sol",
  "compiler": {
    "name": "solc",
    "version": "0.8.13+commit.abaa5c0e.Emscripten.clang"
  },
  "schemaVersion": "3.4.14",
  "updatedAt": "2023-07-23T11:26:29.494Z",
  "networkType": "ethereum",
  "devdoc": {
    "kind": "dev",
    "methods": {},
    "version": 1
  },
  "userdoc": {
    "kind": "user",
    "methods": {},
    "version": 1
  }
}