{
  "contractName": "TokenSales",
  "abi": [
    {
      "inputs": [
        {
          "internalType": "address",
          "name": "_tokenAddress",
          "type": "address"
        }
      ],
      "stateMutability": "nonpayable",
      "type": "constructor"
    },
    {
      "anonymous": false,
      "inputs": [
        {
          "indexed": false,
          "internalType": "address",
          "name": "_tokenOwner",
          "type": "address"
        },
        {
          "indexed": false,
          "internalType": "address",
          "name": "_this",
          "type": "address"
        },
        {
          "indexed": false,
          "internalType": "address",
          "name": "_sender",
          "type": "address"
        }
      ],
      "name": "LogSetForSale",
      "type": "event"
    },
    {
      "inputs": [],
      "name": "nftAddress",
      "outputs": [
        {
          "internalType": "contract ERC721Full",
          "name": "",
          "type": "address"
        }
      ],
      "stateMutability": "view",
      "type": "function",
      "constant": true
    },
    {
      "inputs": [
        {
          "internalType": "uint256",
          "name": "",
          "type": "uint256"
        }
      ],
      "name": "tokenPrice",
      "outputs": [
        {
          "internalType": "uint256",
          "name": "",
          "type": "uint256"
        }
      ],
      "stateMutability": "view",
      "type": "function",
      "constant": true
    },
    {
      "inputs": [
        {
          "internalType": "uint256",
          "name": "_tokenId",
          "type": "uint256"
        },
        {
          "internalType": "uint256",
          "name": "_price",
          "type": "uint256"
        }
      ],
      "name": "setForSale",
      "outputs": [],
      "stateMutability": "nonpayable",
      "type": "function"
    },
    {
      "inputs": [
        {
          "internalType": "uint256",
          "name": "_tokenId",
          "type": "uint256"
        }
      ],
      "name": "purchaseToken",
      "outputs": [],
      "stateMutability": "payable",
      "type": "function",
      "payable": true
    },
    {
      "inputs": [
        {
          "internalType": "uint256[]",
          "name": "tokenIds",
          "type": "uint256[]"
        }
      ],
      "name": "removeTokenOnSale",
      "outputs": [],
      "stateMutability": "nonpayable",
      "type": "function"
    }
  ],
  "bytecode": "0x60806040523480156200001157600080fd5b50604051620011d8380380620011d88339818101604052810190620000379190620000e8565b806000806101000a81548173ffffffffffffffffffffffffffffffffffffffff021916908373ffffffffffffffffffffffffffffffffffffffff160217905550506200011a565b600080fd5b600073ffffffffffffffffffffffffffffffffffffffff82169050919050565b6000620000b08262000083565b9050919050565b620000c281620000a3565b8114620000ce57600080fd5b50565b600081519050620000e281620000b7565b92915050565b6000602082840312156200010157620001006200007e565b5b60006200011184828501620000d1565b91505092915050565b6110ae806200012a6000396000f3fe60806040526004361061004a5760003560e01c806317fcfe221461004f57806350bc3605146100785780635bf8633a146100a1578063c2db2c42146100cc578063d4ddce8a146100e8575b600080fd5b34801561005b57600080fd5b5061007660048036038101906100719190610838565b610125565b005b34801561008457600080fd5b5061009f600480360381019061009a91906109d1565b6103a8565b005b3480156100ad57600080fd5b506100b6610556565b6040516100c39190610a99565b60405180910390f35b6100e660048036038101906100e19190610ab4565b61057a565b005b3480156100f457600080fd5b5061010f600480360381019061010a9190610ab4565b6107d6565b60405161011c9190610af0565b60405180910390f35b60008060009054906101000a900473ffffffffffffffffffffffffffffffffffffffff1673ffffffffffffffffffffffffffffffffffffffff16636352211e846040518263ffffffff1660e01b81526004016101819190610af0565b602060405180830381865afa15801561019e573d6000803e3d6000fd5b505050506040513d601f19601f820116820180604052508101906101c29190610b49565b90507fd279c071deb9c009e8532a2d3a8851d71d60f541d1e7906aff6c5697ae7a3e7b8130336040516101f793929190610b85565b60405180910390a13373ffffffffffffffffffffffffffffffffffffffff168173ffffffffffffffffffffffffffffffffffffffff161461026d576040517f08c379a000000000000000000000000000000000000000000000000000000000815260040161026490610c19565b60405180910390fd5b600082116102b0576040517f08c379a00000000000000000000000000000000000000000000000000000000081526004016102a790610c85565b60405180910390fd5b60008054906101000a900473ffffffffffffffffffffffffffffffffffffffff1673ffffffffffffffffffffffffffffffffffffffff1663e985e9c582306040518363ffffffff1660e01b815260040161030b929190610ca5565b602060405180830381865afa158015610328573d6000803e3d6000fd5b505050506040513d601f19601f8201168201806040525081019061034c9190610d06565b61038b576040517f08c379a000000000000000000000000000000000000000000000000000000000815260040161038290610da5565b60405180910390fd5b816001600085815260200190815260200160002081905550505050565b60008151116103ec576040517f08c379a00000000000000000000000000000000000000000000000000000000081526004016103e390610e11565b60405180910390fd5b60005b815181101561055257600082828151811061040d5761040c610e31565b5b6020026020010151905060008060009054906101000a900473ffffffffffffffffffffffffffffffffffffffff1673ffffffffffffffffffffffffffffffffffffffff16636352211e836040518263ffffffff1660e01b81526004016104739190610af0565b602060405180830381865afa158015610490573d6000803e3d6000fd5b505050506040513d601f19601f820116820180604052508101906104b49190610b49565b90508073ffffffffffffffffffffffffffffffffffffffff163373ffffffffffffffffffffffffffffffffffffffff1614610524576040517f08c379a000000000000000000000000000000000000000000000000000000000815260040161051b90610eac565b60405180910390fd5b600060016000848152602001908152602001600020819055505050808061054a90610efb565b9150506103ef565b5050565b60008054906101000a900473ffffffffffffffffffffffffffffffffffffffff1681565b60006001600083815260200190815260200160002054905060008060009054906101000a900473ffffffffffffffffffffffffffffffffffffffff1673ffffffffffffffffffffffffffffffffffffffff16636352211e846040518263ffffffff1660e01b81526004016105ee9190610af0565b602060405180830381865afa15801561060b573d6000803e3d6000fd5b505050506040513d601f19601f8201168201806040525081019061062f9190610b49565b905081341015610674576040517f08c379a000000000000000000000000000000000000000000000000000000000815260040161066b90610fb5565b60405180910390fd5b8073ffffffffffffffffffffffffffffffffffffffff163373ffffffffffffffffffffffffffffffffffffffff16036106e2576040517f08c379a00000000000000000000000000000000000000000000000000000000081526004016106d990611021565b60405180910390fd5b8073ffffffffffffffffffffffffffffffffffffffff166108fc349081150290604051600060405180830381858888f19350505050158015610728573d6000803e3d6000fd5b5060008054906101000a900473ffffffffffffffffffffffffffffffffffffffff1673ffffffffffffffffffffffffffffffffffffffff166342842e0e8233866040518463ffffffff1660e01b815260040161078693929190611041565b600060405180830381600087803b1580156107a057600080fd5b505af11580156107b4573d6000803e3d6000fd5b5050505060006001600085815260200190815260200160002081905550505050565b60016020528060005260406000206000915090505481565b6000604051905090565b600080fd5b600080fd5b6000819050919050565b61081581610802565b811461082057600080fd5b50565b6000813590506108328161080c565b92915050565b6000806040838503121561084f5761084e6107f8565b5b600061085d85828601610823565b925050602061086e85828601610823565b9150509250929050565b600080fd5b6000601f19601f8301169050919050565b7f4e487b7100000000000000000000000000000000000000000000000000000000600052604160045260246000fd5b6108c68261087d565b810181811067ffffffffffffffff821117156108e5576108e461088e565b5b80604052505050565b60006108f86107ee565b905061090482826108bd565b919050565b600067ffffffffffffffff8211156109245761092361088e565b5b602082029050602081019050919050565b600080fd5b600061094d61094884610909565b6108ee565b905080838252602082019050602084028301858111156109705761096f610935565b5b835b8181101561099957806109858882610823565b845260208401935050602081019050610972565b5050509392505050565b600082601f8301126109b8576109b7610878565b5b81356109c884826020860161093a565b91505092915050565b6000602082840312156109e7576109e66107f8565b5b600082013567ffffffffffffffff811115610a0557610a046107fd565b5b610a11848285016109a3565b91505092915050565b600073ffffffffffffffffffffffffffffffffffffffff82169050919050565b6000819050919050565b6000610a5f610a5a610a5584610a1a565b610a3a565b610a1a565b9050919050565b6000610a7182610a44565b9050919050565b6000610a8382610a66565b9050919050565b610a9381610a78565b82525050565b6000602082019050610aae6000830184610a8a565b92915050565b600060208284031215610aca57610ac96107f8565b5b6000610ad884828501610823565b91505092915050565b610aea81610802565b82525050565b6000602082019050610b056000830184610ae1565b92915050565b6000610b1682610a1a565b9050919050565b610b2681610b0b565b8114610b3157600080fd5b50565b600081519050610b4381610b1d565b92915050565b600060208284031215610b5f57610b5e6107f8565b5b6000610b6d84828501610b34565b91505092915050565b610b7f81610b0b565b82525050565b6000606082019050610b9a6000830186610b76565b610ba76020830185610b76565b610bb46040830184610b76565b949350505050565b600082825260208201905092915050565b7f63616c6c6572206973206e6f7420746f6b656e206f776e657200000000000000600082015250565b6000610c03601983610bbc565b9150610c0e82610bcd565b602082019050919050565b60006020820190508181036000830152610c3281610bf6565b9050919050565b7f7072696365206973207a65726f206f72206c6f77657200000000000000000000600082015250565b6000610c6f601683610bbc565b9150610c7a82610c39565b602082019050919050565b60006020820190508181036000830152610c9e81610c62565b9050919050565b6000604082019050610cba6000830185610b76565b610cc76020830184610b76565b9392505050565b60008115159050919050565b610ce381610cce565b8114610cee57600080fd5b50565b600081519050610d0081610cda565b92915050565b600060208284031215610d1c57610d1b6107f8565b5b6000610d2a84828501610cf1565b91505092915050565b7f746f6b656e206f776e657220646964206e6f7420617070726f766520546f6b6560008201527f6e53616c657320636f6e74726163742e00000000000000000000000000000000602082015250565b6000610d8f603083610bbc565b9150610d9a82610d33565b604082019050919050565b60006020820190508181036000830152610dbe81610d82565b9050919050565b7f746f6b656e49647320697320656d707479000000000000000000000000000000600082015250565b6000610dfb601183610bbc565b9150610e0682610dc5565b602082019050919050565b60006020820190508181036000830152610e2a81610dee565b9050919050565b7f4e487b7100000000000000000000000000000000000000000000000000000000600052603260045260246000fd5b7f63616c6c6572206973206e6f7420746f6b656e2073656c6c6572000000000000600082015250565b6000610e96601a83610bbc565b9150610ea182610e60565b602082019050919050565b60006020820190508181036000830152610ec581610e89565b9050919050565b7f4e487b7100000000000000000000000000000000000000000000000000000000600052601160045260246000fd5b6000610f0682610802565b91507fffffffffffffffffffffffffffffffffffffffffffffffffffffffffffffffff8203610f3857610f37610ecc565b5b600182019050919050565b7f63656c6c65722073656e74206b6c6179206c6f776572207468616e207072696360008201527f6500000000000000000000000000000000000000000000000000000000000000602082015250565b6000610f9f602183610bbc565b9150610faa82610f43565b604082019050919050565b60006020820190508181036000830152610fce81610f92565b9050919050565b7f63616c6c657220697320746f6b656e2073656c6c657200000000000000000000600082015250565b600061100b601683610bbc565b915061101682610fd5565b602082019050919050565b6000602082019050818103600083015261103a81610ffe565b9050919050565b60006060820190506110566000830186610b76565b6110636020830185610b76565b6110706040830184610ae1565b94935050505056fea26469706673582212203f7ce7944acad082f1fa72e3d2fedd4f116ee8306a9b2af66fb2efaded0437f164736f6c634300080d0033",
  "immutableReferences": {},
  "source": "// SPDX-License-Identifier: GPL-3.0\r\npragma solidity >=0.8.0 <0.9.0;\r\n\r\nimport \"./ERC721Full.sol\";\r\n\r\ncontract TokenSales {\r\n\r\n  ERC721Full public nftAddress;\r\n  mapping (uint256 => uint256) public tokenPrice;\r\n\r\n  event LogSetForSale(\r\n        address _tokenOwner,\r\n        address _this,\r\n        address _sender\r\n    );\r\n\r\n  constructor(address _tokenAddress) {\r\n    nftAddress = ERC721Full(_tokenAddress);\r\n  }\r\n\r\n  //  \r\n  function setForSale(uint256 _tokenId, uint256 _price) public {\r\n\r\n    address tokenOwner = nftAddress.ownerOf(_tokenId);\r\n\r\n    emit LogSetForSale(tokenOwner, address(this), msg.sender);\r\n\r\n    //     \r\n    require(tokenOwner == msg.sender, \"caller is not token owner\");\r\n    //  0 \r\n    require(_price > 0, \"price is zero or lower\");\r\n    //      \r\n    require(nftAddress.isApprovedForAll(tokenOwner, address(this)), \"token owner did not approve TokenSales contract.\");\r\n    tokenPrice[_tokenId] = _price;\r\n  }\r\n\r\n  //  \r\n  function purchaseToken(uint256 _tokenId) public payable {\r\n    uint256 price  =tokenPrice[_tokenId];\r\n    address tokenSeller = nftAddress.ownerOf(_tokenId);\r\n    require(msg.value >= price, \"celler sent klay lower than price\"); \r\n    require(msg.sender != tokenSeller, \"caller is token seller\");\r\n    payable(tokenSeller).transfer(msg.value);\r\n    nftAddress.safeTransferFrom(tokenSeller, msg.sender, _tokenId);\r\n    tokenPrice[_tokenId] = 0;\r\n  }\r\n\r\n  //   \r\n  function removeTokenOnSale(uint256[] memory tokenIds) public {\r\n    require(tokenIds.length > 0, \"tokenIds is empty\");\r\n    for(uint i=0; i<tokenIds.length; i++) {\r\n      uint256 tokenId = tokenIds[i];\r\n      address tokenSeller = nftAddress.ownerOf(tokenId);\r\n      require(msg.sender == tokenSeller, \"caller is not token seller\");\r\n      tokenPrice[tokenId] = 0;\r\n    }\r\n  }\r\n}",
  "sourcePath": "D:\\Works\\github.com\\ariars\\blockchain\\03.Klaytn-NFT\\04.crypto-ytt\\contracts\\TokenSales.sol",
  "compiler": {
    "name": "solc",
    "version": "0.8.13+commit.abaa5c0e.Emscripten.clang"
  },
  "schemaVersion": "3.4.15",
  "updatedAt": "2023-08-15T09:25:26.833Z",
  "networkType": "ethereum",
  "devdoc": {
    "kind": "dev",
    "methods": {},
    "version": 1
  },
  "userdoc": {
    "kind": "user",
    "methods": {},
    "version": 1
  }
}