{
  "contractName": "YouTubeThumbnailToken",
  "abi": [
    {
      "inputs": [
        {
          "internalType": "string",
          "name": "name_",
          "type": "string"
        },
        {
          "internalType": "string",
          "name": "symbol_",
          "type": "string"
        }
      ],
      "stateMutability": "nonpayable",
      "type": "constructor"
    },
    {
      "anonymous": false,
      "inputs": [
        {
          "indexed": true,
          "internalType": "address",
          "name": "owner",
          "type": "address"
        },
        {
          "indexed": true,
          "internalType": "address",
          "name": "approved",
          "type": "address"
        },
        {
          "indexed": true,
          "internalType": "uint256",
          "name": "tokenId",
          "type": "uint256"
        }
      ],
      "name": "Approval",
      "type": "event"
    },
    {
      "anonymous": false,
      "inputs": [
        {
          "indexed": true,
          "internalType": "address",
          "name": "owner",
          "type": "address"
        },
        {
          "indexed": true,
          "internalType": "address",
          "name": "operator",
          "type": "address"
        },
        {
          "indexed": false,
          "internalType": "bool",
          "name": "approved",
          "type": "bool"
        }
      ],
      "name": "ApprovalForAll",
      "type": "event"
    },
    {
      "anonymous": false,
      "inputs": [
        {
          "indexed": false,
          "internalType": "uint256",
          "name": "_fromTokenId",
          "type": "uint256"
        },
        {
          "indexed": false,
          "internalType": "uint256",
          "name": "_toTokenId",
          "type": "uint256"
        }
      ],
      "name": "BatchMetadataUpdate",
      "type": "event"
    },
    {
      "anonymous": false,
      "inputs": [
        {
          "indexed": false,
          "internalType": "uint256",
          "name": "_tokenId",
          "type": "uint256"
        }
      ],
      "name": "MetadataUpdate",
      "type": "event"
    },
    {
      "anonymous": false,
      "inputs": [
        {
          "indexed": true,
          "internalType": "address",
          "name": "from",
          "type": "address"
        },
        {
          "indexed": true,
          "internalType": "address",
          "name": "to",
          "type": "address"
        },
        {
          "indexed": true,
          "internalType": "uint256",
          "name": "tokenId",
          "type": "uint256"
        }
      ],
      "name": "Transfer",
      "type": "event"
    },
    {
      "inputs": [
        {
          "internalType": "address",
          "name": "to",
          "type": "address"
        },
        {
          "internalType": "uint256",
          "name": "tokenId",
          "type": "uint256"
        }
      ],
      "name": "approve",
      "outputs": [],
      "stateMutability": "nonpayable",
      "type": "function"
    },
    {
      "inputs": [
        {
          "internalType": "address",
          "name": "owner",
          "type": "address"
        }
      ],
      "name": "balanceOf",
      "outputs": [
        {
          "internalType": "uint256",
          "name": "",
          "type": "uint256"
        }
      ],
      "stateMutability": "view",
      "type": "function",
      "constant": true
    },
    {
      "inputs": [
        {
          "internalType": "uint256",
          "name": "tokenId",
          "type": "uint256"
        }
      ],
      "name": "getApproved",
      "outputs": [
        {
          "internalType": "address",
          "name": "",
          "type": "address"
        }
      ],
      "stateMutability": "view",
      "type": "function",
      "constant": true
    },
    {
      "inputs": [
        {
          "internalType": "address",
          "name": "owner",
          "type": "address"
        },
        {
          "internalType": "address",
          "name": "operator",
          "type": "address"
        }
      ],
      "name": "isApprovedForAll",
      "outputs": [
        {
          "internalType": "bool",
          "name": "",
          "type": "bool"
        }
      ],
      "stateMutability": "view",
      "type": "function",
      "constant": true
    },
    {
      "inputs": [],
      "name": "name",
      "outputs": [
        {
          "internalType": "string",
          "name": "",
          "type": "string"
        }
      ],
      "stateMutability": "view",
      "type": "function",
      "constant": true
    },
    {
      "inputs": [
        {
          "internalType": "uint256",
          "name": "tokenId",
          "type": "uint256"
        }
      ],
      "name": "ownerOf",
      "outputs": [
        {
          "internalType": "address",
          "name": "",
          "type": "address"
        }
      ],
      "stateMutability": "view",
      "type": "function",
      "constant": true
    },
    {
      "inputs": [
        {
          "internalType": "address",
          "name": "from",
          "type": "address"
        },
        {
          "internalType": "address",
          "name": "to",
          "type": "address"
        },
        {
          "internalType": "uint256",
          "name": "tokenId",
          "type": "uint256"
        }
      ],
      "name": "safeTransferFrom",
      "outputs": [],
      "stateMutability": "nonpayable",
      "type": "function"
    },
    {
      "inputs": [
        {
          "internalType": "address",
          "name": "from",
          "type": "address"
        },
        {
          "internalType": "address",
          "name": "to",
          "type": "address"
        },
        {
          "internalType": "uint256",
          "name": "tokenId",
          "type": "uint256"
        },
        {
          "internalType": "bytes",
          "name": "data",
          "type": "bytes"
        }
      ],
      "name": "safeTransferFrom",
      "outputs": [],
      "stateMutability": "nonpayable",
      "type": "function"
    },
    {
      "inputs": [
        {
          "internalType": "address",
          "name": "operator",
          "type": "address"
        },
        {
          "internalType": "bool",
          "name": "approved",
          "type": "bool"
        }
      ],
      "name": "setApprovalForAll",
      "outputs": [],
      "stateMutability": "nonpayable",
      "type": "function"
    },
    {
      "inputs": [
        {
          "internalType": "bytes4",
          "name": "interfaceId",
          "type": "bytes4"
        }
      ],
      "name": "supportsInterface",
      "outputs": [
        {
          "internalType": "bool",
          "name": "",
          "type": "bool"
        }
      ],
      "stateMutability": "view",
      "type": "function",
      "constant": true
    },
    {
      "inputs": [],
      "name": "symbol",
      "outputs": [
        {
          "internalType": "string",
          "name": "",
          "type": "string"
        }
      ],
      "stateMutability": "view",
      "type": "function",
      "constant": true
    },
    {
      "inputs": [
        {
          "internalType": "uint256",
          "name": "index",
          "type": "uint256"
        }
      ],
      "name": "tokenByIndex",
      "outputs": [
        {
          "internalType": "uint256",
          "name": "",
          "type": "uint256"
        }
      ],
      "stateMutability": "view",
      "type": "function",
      "constant": true
    },
    {
      "inputs": [
        {
          "internalType": "address",
          "name": "owner",
          "type": "address"
        },
        {
          "internalType": "uint256",
          "name": "index",
          "type": "uint256"
        }
      ],
      "name": "tokenOfOwnerByIndex",
      "outputs": [
        {
          "internalType": "uint256",
          "name": "",
          "type": "uint256"
        }
      ],
      "stateMutability": "view",
      "type": "function",
      "constant": true
    },
    {
      "inputs": [
        {
          "internalType": "uint256",
          "name": "tokenId",
          "type": "uint256"
        }
      ],
      "name": "tokenURI",
      "outputs": [
        {
          "internalType": "string",
          "name": "",
          "type": "string"
        }
      ],
      "stateMutability": "view",
      "type": "function",
      "constant": true
    },
    {
      "inputs": [],
      "name": "totalSupply",
      "outputs": [
        {
          "internalType": "uint256",
          "name": "",
          "type": "uint256"
        }
      ],
      "stateMutability": "view",
      "type": "function",
      "constant": true
    },
    {
      "inputs": [
        {
          "internalType": "address",
          "name": "from",
          "type": "address"
        },
        {
          "internalType": "address",
          "name": "to",
          "type": "address"
        },
        {
          "internalType": "uint256",
          "name": "tokenId",
          "type": "uint256"
        }
      ],
      "name": "transferFrom",
      "outputs": [],
      "stateMutability": "nonpayable",
      "type": "function"
    },
    {
      "inputs": [
        {
          "internalType": "string",
          "name": "_videoId",
          "type": "string"
        },
        {
          "internalType": "string",
          "name": "_author",
          "type": "string"
        },
        {
          "internalType": "string",
          "name": "_dateCreated",
          "type": "string"
        },
        {
          "internalType": "string",
          "name": "_tokenURI",
          "type": "string"
        }
      ],
      "name": "mintYTT",
      "outputs": [],
      "stateMutability": "nonpayable",
      "type": "function"
    },
    {
      "inputs": [
        {
          "internalType": "uint256",
          "name": "_tokenId",
          "type": "uint256"
        }
      ],
      "name": "getYTT",
      "outputs": [
        {
          "internalType": "string",
          "name": "",
          "type": "string"
        },
        {
          "internalType": "string",
          "name": "",
          "type": "string"
        }
      ],
      "stateMutability": "view",
      "type": "function",
      "constant": true
    },
    {
      "inputs": [
        {
          "internalType": "string",
          "name": "_videoId",
          "type": "string"
        }
      ],
      "name": "isTokenAlreadyCreated",
      "outputs": [
        {
          "internalType": "bool",
          "name": "",
          "type": "bool"
        }
      ],
      "stateMutability": "view",
      "type": "function",
      "constant": true
    }
  ],
  "bytecode": "0x60806040523480156200001157600080fd5b5060405162003aa038038062003aa08339818101604052810190620000379190620002c6565b8181818181600090805190602001906200005392919062000079565b5080600190805190602001906200006c92919062000079565b50505050505050620003af565b82805462000087906200037a565b90600052602060002090601f016020900481019282620000ab5760008555620000f7565b82601f10620000c657805160ff1916838001178555620000f7565b82800160010185558215620000f7579182015b82811115620000f6578251825591602001919060010190620000d9565b5b5090506200010691906200010a565b5090565b5b80821115620001255760008160009055506001016200010b565b5090565b6000604051905090565b600080fd5b600080fd5b600080fd5b600080fd5b6000601f19601f8301169050919050565b7f4e487b7100000000000000000000000000000000000000000000000000000000600052604160045260246000fd5b620001928262000147565b810181811067ffffffffffffffff82111715620001b457620001b362000158565b5b80604052505050565b6000620001c962000129565b9050620001d7828262000187565b919050565b600067ffffffffffffffff821115620001fa57620001f962000158565b5b620002058262000147565b9050602081019050919050565b60005b838110156200023257808201518184015260208101905062000215565b8381111562000242576000848401525b50505050565b60006200025f6200025984620001dc565b620001bd565b9050828152602081018484840111156200027e576200027d62000142565b5b6200028b84828562000212565b509392505050565b600082601f830112620002ab57620002aa6200013d565b5b8151620002bd84826020860162000248565b91505092915050565b60008060408385031215620002e057620002df62000133565b5b600083015167ffffffffffffffff81111562000301576200030062000138565b5b6200030f8582860162000293565b925050602083015167ffffffffffffffff81111562000333576200033262000138565b5b620003418582860162000293565b9150509250929050565b7f4e487b7100000000000000000000000000000000000000000000000000000000600052602260045260246000fd5b600060028204905060018216806200039357607f821691505b602082108103620003a957620003a86200034b565b5b50919050565b6136e180620003bf6000396000f3fe608060405234801561001057600080fd5b50600436106101215760003560e01c80634f6ccce7116100ad578063a22cb46511610071578063a22cb46514610340578063b88d4fde1461035c578063c87b56dd14610378578063e985e9c5146103a8578063eef8d136146103d857610121565b80634f6ccce7146102765780636352211e146102a657806370a08231146102d657806381680fed1461030657806395d89b411461032257610121565b8063095ea7b3116100f4578063095ea7b3146101d457806318160ddd146101f057806323b872dd1461020e5780632f745c591461022a57806342842e0e1461025a57610121565b806301ffc9a71461012657806306fdde0314610156578063070f441b14610174578063081812fc146101a4575b600080fd5b610140600480360381019061013b91906123fa565b610409565b60405161014d9190612442565b60405180910390f35b61015e61041b565b60405161016b91906124f6565b60405180910390f35b61018e6004803603810190610189919061264d565b6104ad565b60405161019b9190612442565b60405180910390f35b6101be60048036038101906101b991906126cc565b6104e5565b6040516101cb919061273a565b60405180910390f35b6101ee60048036038101906101e99190612781565b61052b565b005b6101f8610642565b60405161020591906127d0565b60405180910390f35b610228600480360381019061022391906127eb565b61064f565b005b610244600480360381019061023f9190612781565b6106af565b60405161025191906127d0565b60405180910390f35b610274600480360381019061026f91906127eb565b610754565b005b610290600480360381019061028b91906126cc565b610774565b60405161029d91906127d0565b60405180910390f35b6102c060048036038101906102bb91906126cc565b6107e5565b6040516102cd919061273a565b60405180910390f35b6102f060048036038101906102eb919061283e565b61086b565b6040516102fd91906127d0565b60405180910390f35b610320600480360381019061031b919061286b565b610922565b005b61032a610a3e565b60405161033791906124f6565b60405180910390f35b61035a6004803603810190610355919061296e565b610ad0565b005b61037660048036038101906103719190612a4f565b610ae6565b005b610392600480360381019061038d91906126cc565b610b48565b60405161039f91906124f6565b60405180910390f35b6103c260048036038101906103bd9190612ad2565b610b5a565b6040516103cf9190612442565b60405180910390f35b6103f260048036038101906103ed91906126cc565b610bee565b604051610400929190612b12565b60405180910390f35b600061041482610d3e565b9050919050565b60606000805461042a90612b78565b80601f016020809104026020016040519081016040528092919081815260200182805461045690612b78565b80156104a35780601f10610478576101008083540402835291602001916104a3565b820191906000526020600020905b81548152906001019060200180831161048657829003601f168201915b5050505050905090565b600080600c836040516104c09190612be5565b908152602001604051809103902054036104db5760006104de565b60015b9050919050565b60006104f082610d9f565b6004600083815260200190815260200160002060009054906101000a900473ffffffffffffffffffffffffffffffffffffffff169050919050565b6000610536826107e5565b90508073ffffffffffffffffffffffffffffffffffffffff168373ffffffffffffffffffffffffffffffffffffffff16036105a6576040517f08c379a000000000000000000000000000000000000000000000000000000000815260040161059d90612c6e565b60405180910390fd5b8073ffffffffffffffffffffffffffffffffffffffff166105c5610dea565b73ffffffffffffffffffffffffffffffffffffffff1614806105f457506105f3816105ee610dea565b610b5a565b5b610633576040517f08c379a000000000000000000000000000000000000000000000000000000000815260040161062a90612d00565b60405180910390fd5b61063d8383610df2565b505050565b6000600880549050905090565b61066061065a610dea565b82610eab565b61069f576040517f08c379a000000000000000000000000000000000000000000000000000000000815260040161069690612d92565b60405180910390fd5b6106aa838383610f40565b505050565b60006106ba8361086b565b82106106fb576040517f08c379a00000000000000000000000000000000000000000000000000000000081526004016106f290612e24565b60405180910390fd5b600660008473ffffffffffffffffffffffffffffffffffffffff1673ffffffffffffffffffffffffffffffffffffffff168152602001908152602001600020600083815260200190815260200160002054905092915050565b61076f83838360405180602001604052806000815250610ae6565b505050565b600061077e610642565b82106107bf576040517f08c379a00000000000000000000000000000000000000000000000000000000081526004016107b690612eb6565b60405180910390fd5b600882815481106107d3576107d2612ed6565b5b90600052602060002001549050919050565b6000806107f183611239565b9050600073ffffffffffffffffffffffffffffffffffffffff168173ffffffffffffffffffffffffffffffffffffffff1603610862576040517f08c379a000000000000000000000000000000000000000000000000000000000815260040161085990612f51565b60405180910390fd5b80915050919050565b60008073ffffffffffffffffffffffffffffffffffffffff168273ffffffffffffffffffffffffffffffffffffffff16036108db576040517f08c379a00000000000000000000000000000000000000000000000000000000081526004016108d290612fe3565b60405180910390fd5b600360008373ffffffffffffffffffffffffffffffffffffffff1673ffffffffffffffffffffffffffffffffffffffff168152602001908152602001600020549050919050565b6000600c856040516109349190612be5565b90815260200160405180910390205414610983576040517f08c379a000000000000000000000000000000000000000000000000000000000815260040161097a9061304f565b60405180910390fd5b6000600161098f610642565b610999919061309e565b9050604051806040016040528085815260200184815250600b600083815260200190815260200160002060008201518160000190805190602001906109df9291906122eb565b5060208201518160010190805190602001906109fc9291906122eb565b5090505080600c86604051610a119190612be5565b908152602001604051809103902081905550610a2d3382611276565b610a378183611493565b5050505050565b606060018054610a4d90612b78565b80601f0160208091040260200160405190810160405280929190818152602001828054610a7990612b78565b8015610ac65780601f10610a9b57610100808354040283529160200191610ac6565b820191906000526020600020905b815481529060010190602001808311610aa957829003601f168201915b5050505050905090565b610ae2610adb610dea565b838361153e565b5050565b610af7610af1610dea565b83610eab565b610b36576040517f08c379a0000000000000000000000000000000000000000000000000000000008152600401610b2d90612d92565b60405180910390fd5b610b42848484846116aa565b50505050565b6060610b5382611706565b9050919050565b6000600560008473ffffffffffffffffffffffffffffffffffffffff1673ffffffffffffffffffffffffffffffffffffffff16815260200190815260200160002060008373ffffffffffffffffffffffffffffffffffffffff1673ffffffffffffffffffffffffffffffffffffffff16815260200190815260200160002060009054906101000a900460ff16905092915050565b606080600b6000848152602001908152602001600020600001600b6000858152602001908152602001600020600101818054610c2990612b78565b80601f0160208091040260200160405190810160405280929190818152602001828054610c5590612b78565b8015610ca25780601f10610c7757610100808354040283529160200191610ca2565b820191906000526020600020905b815481529060010190602001808311610c8557829003601f168201915b50505050509150808054610cb590612b78565b80601f0160208091040260200160405190810160405280929190818152602001828054610ce190612b78565b8015610d2e5780601f10610d0357610100808354040283529160200191610d2e565b820191906000526020600020905b815481529060010190602001808311610d1157829003601f168201915b5050505050905091509150915091565b6000634906490660e01b7bffffffffffffffffffffffffffffffffffffffffffffffffffffffff1916827bffffffffffffffffffffffffffffffffffffffffffffffffffffffff19161480610d985750610d9782611818565b5b9050919050565b610da881611892565b610de7576040517f08c379a0000000000000000000000000000000000000000000000000000000008152600401610dde90612f51565b60405180910390fd5b50565b600033905090565b816004600083815260200190815260200160002060006101000a81548173ffffffffffffffffffffffffffffffffffffffff021916908373ffffffffffffffffffffffffffffffffffffffff160217905550808273ffffffffffffffffffffffffffffffffffffffff16610e65836107e5565b73ffffffffffffffffffffffffffffffffffffffff167f8c5be1e5ebec7d5bd14f71427d1e84f3dd0314c0f7b2291e5b200ac8c7c3b92560405160405180910390a45050565b600080610eb7836107e5565b90508073ffffffffffffffffffffffffffffffffffffffff168473ffffffffffffffffffffffffffffffffffffffff161480610ef95750610ef88185610b5a565b5b80610f3757508373ffffffffffffffffffffffffffffffffffffffff16610f1f846104e5565b73ffffffffffffffffffffffffffffffffffffffff16145b91505092915050565b8273ffffffffffffffffffffffffffffffffffffffff16610f60826107e5565b73ffffffffffffffffffffffffffffffffffffffff1614610fb6576040517f08c379a0000000000000000000000000000000000000000000000000000000008152600401610fad90613166565b60405180910390fd5b600073ffffffffffffffffffffffffffffffffffffffff168273ffffffffffffffffffffffffffffffffffffffff1603611025576040517f08c379a000000000000000000000000000000000000000000000000000000000815260040161101c906131f8565b60405180910390fd5b61103283838360016118d3565b8273ffffffffffffffffffffffffffffffffffffffff16611052826107e5565b73ffffffffffffffffffffffffffffffffffffffff16146110a8576040517f08c379a000000000000000000000000000000000000000000000000000000000815260040161109f90613166565b60405180910390fd5b6004600082815260200190815260200160002060006101000a81549073ffffffffffffffffffffffffffffffffffffffff02191690556001600360008573ffffffffffffffffffffffffffffffffffffffff1673ffffffffffffffffffffffffffffffffffffffff168152602001908152602001600020600082825403925050819055506001600360008473ffffffffffffffffffffffffffffffffffffffff1673ffffffffffffffffffffffffffffffffffffffff16815260200190815260200160002060008282540192505081905550816002600083815260200190815260200160002060006101000a81548173ffffffffffffffffffffffffffffffffffffffff021916908373ffffffffffffffffffffffffffffffffffffffff160217905550808273ffffffffffffffffffffffffffffffffffffffff168473ffffffffffffffffffffffffffffffffffffffff167fddf252ad1be2c89b69c2b068fc378daa952ba7f163c4a11628f55a4df523b3ef60405160405180910390a461123483838360016118e5565b505050565b60006002600083815260200190815260200160002060009054906101000a900473ffffffffffffffffffffffffffffffffffffffff169050919050565b600073ffffffffffffffffffffffffffffffffffffffff168273ffffffffffffffffffffffffffffffffffffffff16036112e5576040517f08c379a00000000000000000000000000000000000000000000000000000000081526004016112dc90613264565b60405180910390fd5b6112ee81611892565b1561132e576040517f08c379a0000000000000000000000000000000000000000000000000000000008152600401611325906132d0565b60405180910390fd5b61133c6000838360016118d3565b61134581611892565b15611385576040517f08c379a000000000000000000000000000000000000000000000000000000000815260040161137c906132d0565b60405180910390fd5b6001600360008473ffffffffffffffffffffffffffffffffffffffff1673ffffffffffffffffffffffffffffffffffffffff16815260200190815260200160002060008282540192505081905550816002600083815260200190815260200160002060006101000a81548173ffffffffffffffffffffffffffffffffffffffff021916908373ffffffffffffffffffffffffffffffffffffffff160217905550808273ffffffffffffffffffffffffffffffffffffffff16600073ffffffffffffffffffffffffffffffffffffffff167fddf252ad1be2c89b69c2b068fc378daa952ba7f163c4a11628f55a4df523b3ef60405160405180910390a461148f6000838360016118e5565b5050565b61149c82611892565b6114db576040517f08c379a00000000000000000000000000000000000000000000000000000000081526004016114d290613362565b60405180910390fd5b80600a600084815260200190815260200160002090805190602001906115029291906122eb565b507ff8e1a15aba9398e019f0b49df1a4fde98ee17ae345cb5f6b5e2c27f5033e8ce78260405161153291906127d0565b60405180910390a15050565b8173ffffffffffffffffffffffffffffffffffffffff168373ffffffffffffffffffffffffffffffffffffffff16036115ac576040517f08c379a00000000000000000000000000000000000000000000000000000000081526004016115a3906133ce565b60405180910390fd5b80600560008573ffffffffffffffffffffffffffffffffffffffff1673ffffffffffffffffffffffffffffffffffffffff16815260200190815260200160002060008473ffffffffffffffffffffffffffffffffffffffff1673ffffffffffffffffffffffffffffffffffffffff16815260200190815260200160002060006101000a81548160ff0219169083151502179055508173ffffffffffffffffffffffffffffffffffffffff168373ffffffffffffffffffffffffffffffffffffffff167f17307eab39ab6107e8899845ad3d59bd9653f200f220920489ca2b5937696c318360405161169d9190612442565b60405180910390a3505050565b6116b5848484610f40565b6116c1848484846118eb565b611700576040517f08c379a00000000000000000000000000000000000000000000000000000000081526004016116f790613460565b60405180910390fd5b50505050565b606061171182610d9f565b6000600a6000848152602001908152602001600020805461173190612b78565b80601f016020809104026020016040519081016040528092919081815260200182805461175d90612b78565b80156117aa5780601f1061177f576101008083540402835291602001916117aa565b820191906000526020600020905b81548152906001019060200180831161178d57829003601f168201915b5050505050905060006117bb611a72565b905060008151036117d0578192505050611813565b6000825111156118055780826040516020016117ed929190613480565b60405160208183030381529060405292505050611813565b61180e84611a89565b925050505b919050565b60007f780e9d63000000000000000000000000000000000000000000000000000000007bffffffffffffffffffffffffffffffffffffffffffffffffffffffff1916827bffffffffffffffffffffffffffffffffffffffffffffffffffffffff1916148061188b575061188a82611af1565b5b9050919050565b60008073ffffffffffffffffffffffffffffffffffffffff166118b483611239565b73ffffffffffffffffffffffffffffffffffffffff1614159050919050565b6118df84848484611bd3565b50505050565b50505050565b600061190c8473ffffffffffffffffffffffffffffffffffffffff16611d31565b15611a65578373ffffffffffffffffffffffffffffffffffffffff1663150b7a02611935610dea565b8786866040518563ffffffff1660e01b815260040161195794939291906134f9565b6020604051808303816000875af192505050801561199357506040513d601f19601f82011682018060405250810190611990919061355a565b60015b611a15573d80600081146119c3576040519150601f19603f3d011682016040523d82523d6000602084013e6119c8565b606091505b506000815103611a0d576040517f08c379a0000000000000000000000000000000000000000000000000000000008152600401611a0490613460565b60405180910390fd5b805181602001fd5b63150b7a0260e01b7bffffffffffffffffffffffffffffffffffffffffffffffffffffffff1916817bffffffffffffffffffffffffffffffffffffffffffffffffffffffff191614915050611a6a565b600190505b949350505050565b606060405180602001604052806000815250905090565b6060611a9482610d9f565b6000611a9e611a72565b90506000815111611abe5760405180602001604052806000815250611ae9565b80611ac884611d54565b604051602001611ad9929190613480565b6040516020818303038152906040525b915050919050565b60007f80ac58cd000000000000000000000000000000000000000000000000000000007bffffffffffffffffffffffffffffffffffffffffffffffffffffffff1916827bffffffffffffffffffffffffffffffffffffffffffffffffffffffff19161480611bbc57507f5b5e139f000000000000000000000000000000000000000000000000000000007bffffffffffffffffffffffffffffffffffffffffffffffffffffffff1916827bffffffffffffffffffffffffffffffffffffffffffffffffffffffff1916145b80611bcc5750611bcb82611e22565b5b9050919050565b611bdf84848484611e8c565b6001811115611c23576040517f08c379a0000000000000000000000000000000000000000000000000000000008152600401611c1a906135f9565b60405180910390fd5b6000829050600073ffffffffffffffffffffffffffffffffffffffff168573ffffffffffffffffffffffffffffffffffffffff1603611c6a57611c6581611e92565b611ca9565b8373ffffffffffffffffffffffffffffffffffffffff168573ffffffffffffffffffffffffffffffffffffffff1614611ca857611ca78582611edb565b5b5b600073ffffffffffffffffffffffffffffffffffffffff168473ffffffffffffffffffffffffffffffffffffffff1603611ceb57611ce681612048565b611d2a565b8473ffffffffffffffffffffffffffffffffffffffff168473ffffffffffffffffffffffffffffffffffffffff1614611d2957611d288482612119565b5b5b5050505050565b6000808273ffffffffffffffffffffffffffffffffffffffff163b119050919050565b606060006001611d6384612198565b01905060008167ffffffffffffffff811115611d8257611d81612522565b5b6040519080825280601f01601f191660200182016040528015611db45781602001600182028036833780820191505090505b509050600082602001820190505b600115611e17578080600190039150507f3031323334353637383961626364656600000000000000000000000000000000600a86061a8153600a8581611e0b57611e0a613619565b5b04945060008503611dc2575b819350505050919050565b60007f01ffc9a7000000000000000000000000000000000000000000000000000000007bffffffffffffffffffffffffffffffffffffffffffffffffffffffff1916827bffffffffffffffffffffffffffffffffffffffffffffffffffffffff1916149050919050565b50505050565b6008805490506009600083815260200190815260200160002081905550600881908060018154018082558091505060019003906000526020600020016000909190919091505550565b60006001611ee88461086b565b611ef29190613648565b9050600060076000848152602001908152602001600020549050818114611fd7576000600660008673ffffffffffffffffffffffffffffffffffffffff1673ffffffffffffffffffffffffffffffffffffffff168152602001908152602001600020600084815260200190815260200160002054905080600660008773ffffffffffffffffffffffffffffffffffffffff1673ffffffffffffffffffffffffffffffffffffffff168152602001908152602001600020600084815260200190815260200160002081905550816007600083815260200190815260200160002081905550505b6007600084815260200190815260200160002060009055600660008573ffffffffffffffffffffffffffffffffffffffff1673ffffffffffffffffffffffffffffffffffffffff16815260200190815260200160002060008381526020019081526020016000206000905550505050565b6000600160088054905061205c9190613648565b905060006009600084815260200190815260200160002054905060006008838154811061208c5761208b612ed6565b5b9060005260206000200154905080600883815481106120ae576120ad612ed6565b5b9060005260206000200181905550816009600083815260200190815260200160002081905550600960008581526020019081526020016000206000905560088054806120fd576120fc61367c565b5b6001900381819060005260206000200160009055905550505050565b60006121248361086b565b905081600660008573ffffffffffffffffffffffffffffffffffffffff1673ffffffffffffffffffffffffffffffffffffffff168152602001908152602001600020600083815260200190815260200160002081905550806007600084815260200190815260200160002081905550505050565b600080600090507a184f03e93ff9f4daa797ed6e38ed64bf6a1f01000000000000000083106121f6577a184f03e93ff9f4daa797ed6e38ed64bf6a1f01000000000000000083816121ec576121eb613619565b5b0492506040810190505b6d04ee2d6d415b85acef81000000008310612233576d04ee2d6d415b85acef8100000000838161222957612228613619565b5b0492506020810190505b662386f26fc10000831061226257662386f26fc10000838161225857612257613619565b5b0492506010810190505b6305f5e100831061228b576305f5e100838161228157612280613619565b5b0492506008810190505b61271083106122b05761271083816122a6576122a5613619565b5b0492506004810190505b606483106122d357606483816122c9576122c8613619565b5b0492506002810190505b600a83106122e2576001810190505b80915050919050565b8280546122f790612b78565b90600052602060002090601f0160209004810192826123195760008555612360565b82601f1061233257805160ff1916838001178555612360565b82800160010185558215612360579182015b8281111561235f578251825591602001919060010190612344565b5b50905061236d9190612371565b5090565b5b8082111561238a576000816000905550600101612372565b5090565b6000604051905090565b600080fd5b600080fd5b60007fffffffff0000000000000000000000000000000000000000000000000000000082169050919050565b6123d7816123a2565b81146123e257600080fd5b50565b6000813590506123f4816123ce565b92915050565b6000602082840312156124105761240f612398565b5b600061241e848285016123e5565b91505092915050565b60008115159050919050565b61243c81612427565b82525050565b60006020820190506124576000830184612433565b92915050565b600081519050919050565b600082825260208201905092915050565b60005b8381101561249757808201518184015260208101905061247c565b838111156124a6576000848401525b50505050565b6000601f19601f8301169050919050565b60006124c88261245d565b6124d28185612468565b93506124e2818560208601612479565b6124eb816124ac565b840191505092915050565b6000602082019050818103600083015261251081846124bd565b905092915050565b600080fd5b600080fd5b7f4e487b7100000000000000000000000000000000000000000000000000000000600052604160045260246000fd5b61255a826124ac565b810181811067ffffffffffffffff8211171561257957612578612522565b5b80604052505050565b600061258c61238e565b90506125988282612551565b919050565b600067ffffffffffffffff8211156125b8576125b7612522565b5b6125c1826124ac565b9050602081019050919050565b82818337600083830152505050565b60006125f06125eb8461259d565b612582565b90508281526020810184848401111561260c5761260b61251d565b5b6126178482856125ce565b509392505050565b600082601f83011261263457612633612518565b5b81356126448482602086016125dd565b91505092915050565b60006020828403121561266357612662612398565b5b600082013567ffffffffffffffff8111156126815761268061239d565b5b61268d8482850161261f565b91505092915050565b6000819050919050565b6126a981612696565b81146126b457600080fd5b50565b6000813590506126c6816126a0565b92915050565b6000602082840312156126e2576126e1612398565b5b60006126f0848285016126b7565b91505092915050565b600073ffffffffffffffffffffffffffffffffffffffff82169050919050565b6000612724826126f9565b9050919050565b61273481612719565b82525050565b600060208201905061274f600083018461272b565b92915050565b61275e81612719565b811461276957600080fd5b50565b60008135905061277b81612755565b92915050565b6000806040838503121561279857612797612398565b5b60006127a68582860161276c565b92505060206127b7858286016126b7565b9150509250929050565b6127ca81612696565b82525050565b60006020820190506127e560008301846127c1565b92915050565b60008060006060848603121561280457612803612398565b5b60006128128682870161276c565b93505060206128238682870161276c565b9250506040612834868287016126b7565b9150509250925092565b60006020828403121561285457612853612398565b5b60006128628482850161276c565b91505092915050565b6000806000806080858703121561288557612884612398565b5b600085013567ffffffffffffffff8111156128a3576128a261239d565b5b6128af8782880161261f565b945050602085013567ffffffffffffffff8111156128d0576128cf61239d565b5b6128dc8782880161261f565b935050604085013567ffffffffffffffff8111156128fd576128fc61239d565b5b6129098782880161261f565b925050606085013567ffffffffffffffff81111561292a5761292961239d565b5b6129368782880161261f565b91505092959194509250565b61294b81612427565b811461295657600080fd5b50565b60008135905061296881612942565b92915050565b6000806040838503121561298557612984612398565b5b60006129938582860161276c565b92505060206129a485828601612959565b9150509250929050565b600067ffffffffffffffff8211156129c9576129c8612522565b5b6129d2826124ac565b9050602081019050919050565b60006129f26129ed846129ae565b612582565b905082815260208101848484011115612a0e57612a0d61251d565b5b612a198482856125ce565b509392505050565b600082601f830112612a3657612a35612518565b5b8135612a468482602086016129df565b91505092915050565b60008060008060808587031215612a6957612a68612398565b5b6000612a778782880161276c565b9450506020612a888782880161276c565b9350506040612a99878288016126b7565b925050606085013567ffffffffffffffff811115612aba57612ab961239d565b5b612ac687828801612a21565b91505092959194509250565b60008060408385031215612ae957612ae8612398565b5b6000612af78582860161276c565b9250506020612b088582860161276c565b9150509250929050565b60006040820190508181036000830152612b2c81856124bd565b90508181036020830152612b4081846124bd565b90509392505050565b7f4e487b7100000000000000000000000000000000000000000000000000000000600052602260045260246000fd5b60006002820490506001821680612b9057607f821691505b602082108103612ba357612ba2612b49565b5b50919050565b600081905092915050565b6000612bbf8261245d565b612bc98185612ba9565b9350612bd9818560208601612479565b80840191505092915050565b6000612bf18284612bb4565b915081905092915050565b7f4552433732313a20617070726f76616c20746f2063757272656e74206f776e6560008201527f7200000000000000000000000000000000000000000000000000000000000000602082015250565b6000612c58602183612468565b9150612c6382612bfc565b604082019050919050565b60006020820190508181036000830152612c8781612c4b565b9050919050565b7f4552433732313a20617070726f76652063616c6c6572206973206e6f7420746f60008201527f6b656e206f776e6572206f7220617070726f76656420666f7220616c6c000000602082015250565b6000612cea603d83612468565b9150612cf582612c8e565b604082019050919050565b60006020820190508181036000830152612d1981612cdd565b9050919050565b7f4552433732313a2063616c6c6572206973206e6f7420746f6b656e206f776e6560008201527f72206f7220617070726f76656400000000000000000000000000000000000000602082015250565b6000612d7c602d83612468565b9150612d8782612d20565b604082019050919050565b60006020820190508181036000830152612dab81612d6f565b9050919050565b7f455243373231456e756d657261626c653a206f776e657220696e646578206f7560008201527f74206f6620626f756e6473000000000000000000000000000000000000000000602082015250565b6000612e0e602b83612468565b9150612e1982612db2565b604082019050919050565b60006020820190508181036000830152612e3d81612e01565b9050919050565b7f455243373231456e756d657261626c653a20676c6f62616c20696e646578206f60008201527f7574206f6620626f756e64730000000000000000000000000000000000000000602082015250565b6000612ea0602c83612468565b9150612eab82612e44565b604082019050919050565b60006020820190508181036000830152612ecf81612e93565b9050919050565b7f4e487b7100000000000000000000000000000000000000000000000000000000600052603260045260246000fd5b7f4552433732313a20696e76616c696420746f6b656e2049440000000000000000600082015250565b6000612f3b601883612468565b9150612f4682612f05565b602082019050919050565b60006020820190508181036000830152612f6a81612f2e565b9050919050565b7f4552433732313a2061646472657373207a65726f206973206e6f74206120766160008201527f6c6964206f776e65720000000000000000000000000000000000000000000000602082015250565b6000612fcd602983612468565b9150612fd882612f71565b604082019050919050565b60006020820190508181036000830152612ffc81612fc0565b9050919050565b7f766964656f49642068617320616c7265616479206265656e2063726561746564600082015250565b6000613039602083612468565b915061304482613003565b602082019050919050565b600060208201905081810360008301526130688161302c565b9050919050565b7f4e487b7100000000000000000000000000000000000000000000000000000000600052601160045260246000fd5b60006130a982612696565b91506130b483612696565b9250827fffffffffffffffffffffffffffffffffffffffffffffffffffffffffffffffff038211156130e9576130e861306f565b5b828201905092915050565b7f4552433732313a207472616e736665722066726f6d20696e636f72726563742060008201527f6f776e6572000000000000000000000000000000000000000000000000000000602082015250565b6000613150602583612468565b915061315b826130f4565b604082019050919050565b6000602082019050818103600083015261317f81613143565b9050919050565b7f4552433732313a207472616e7366657220746f20746865207a65726f2061646460008201527f7265737300000000000000000000000000000000000000000000000000000000602082015250565b60006131e2602483612468565b91506131ed82613186565b604082019050919050565b60006020820190508181036000830152613211816131d5565b9050919050565b7f4552433732313a206d696e7420746f20746865207a65726f2061646472657373600082015250565b600061324e602083612468565b915061325982613218565b602082019050919050565b6000602082019050818103600083015261327d81613241565b9050919050565b7f4552433732313a20746f6b656e20616c7265616479206d696e74656400000000600082015250565b60006132ba601c83612468565b91506132c582613284565b602082019050919050565b600060208201905081810360008301526132e9816132ad565b9050919050565b7f45524337323155524953746f726167653a2055524920736574206f66206e6f6e60008201527f6578697374656e7420746f6b656e000000000000000000000000000000000000602082015250565b600061334c602e83612468565b9150613357826132f0565b604082019050919050565b6000602082019050818103600083015261337b8161333f565b9050919050565b7f4552433732313a20617070726f766520746f2063616c6c657200000000000000600082015250565b60006133b8601983612468565b91506133c382613382565b602082019050919050565b600060208201905081810360008301526133e7816133ab565b9050919050565b7f4552433732313a207472616e7366657220746f206e6f6e20455243373231526560008201527f63656976657220696d706c656d656e7465720000000000000000000000000000602082015250565b600061344a603283612468565b9150613455826133ee565b604082019050919050565b600060208201905081810360008301526134798161343d565b9050919050565b600061348c8285612bb4565b91506134988284612bb4565b91508190509392505050565b600081519050919050565b600082825260208201905092915050565b60006134cb826134a4565b6134d581856134af565b93506134e5818560208601612479565b6134ee816124ac565b840191505092915050565b600060808201905061350e600083018761272b565b61351b602083018661272b565b61352860408301856127c1565b818103606083015261353a81846134c0565b905095945050505050565b600081519050613554816123ce565b92915050565b6000602082840312156135705761356f612398565b5b600061357e84828501613545565b91505092915050565b7f455243373231456e756d657261626c653a20636f6e736563757469766520747260008201527f616e7366657273206e6f7420737570706f727465640000000000000000000000602082015250565b60006135e3603583612468565b91506135ee82613587565b604082019050919050565b60006020820190508181036000830152613612816135d6565b9050919050565b7f4e487b7100000000000000000000000000000000000000000000000000000000600052601260045260246000fd5b600061365382612696565b915061365e83612696565b9250828210156136715761367061306f565b5b828203905092915050565b7f4e487b7100000000000000000000000000000000000000000000000000000000600052603160045260246000fdfea26469706673582212204cf88f7f16e1fcaad511516bdf4fecadc6bf52980a7ab2cfbde44519b304c8c264736f6c634300080d0033",
  "immutableReferences": {},
  "source": "// SPDX-License-Identifier: GPL-3.0\npragma solidity >=0.8.0 <0.9.0;\n\nimport \"./ERC721Full.sol\";\n\ncontract YouTubeThumbnailToken is ERC721Full {\n\n    constructor (string memory name_, string memory symbol_) ERC721Full(name_, symbol_) { }\n\n    struct YouTubeThumbnail {\n        string author;\n        string dateCreated;\n    }\n\n    mapping (uint256 => YouTubeThumbnail) youTubeThumbnails;\n    mapping (string => uint256) videoIdCreated;\n\n    function mintYTT (string memory _videoId, string memory _author, string memory _dateCreated, string memory _tokenURI) public {\n        require(videoIdCreated[_videoId] == 0, \"videoId has already been created\");\n\n        // ERC721Enumerable totalSupply() \n        uint256 tokenId = totalSupply() + 1;\n        youTubeThumbnails[tokenId] = YouTubeThumbnail(_author, _dateCreated);\n        videoIdCreated[_videoId] = tokenId;\n\n        //     contract\n        _mint(msg.sender, tokenId);\n\n        // _tokenURI : ipfs   \n        //  \n        _setTokenURI(tokenId, _tokenURI);\n    }\n\n    //  \n    function getYTT(uint256 _tokenId) public view returns (string memory, string memory) {\n        return (youTubeThumbnails[_tokenId].author, youTubeThumbnails[_tokenId].dateCreated);\n    }\n\n    //   \n    function isTokenAlreadyCreated(string memory _videoId) public view returns (bool) {\n        return videoIdCreated[_videoId] != 0 ? true : false;\n    }\n\n    // function setApprovalForAllOwner(address owner, address operator, bool approved) public {\n    //     super._setApprovalForAll(owner, operator, approved);\n    // }\n}",
  "sourcePath": "D:\\Works\\github.com\\ariars\\blockchain\\03.Klaytn-NFT\\04.crypto-ytt\\contracts\\YouTubeThumbnailToken.sol",
  "compiler": {
    "name": "solc",
    "version": "0.8.13+commit.abaa5c0e.Emscripten.clang"
  },
  "schemaVersion": "3.4.15",
  "updatedAt": "2023-08-15T09:25:26.818Z",
  "networkType": "ethereum",
  "devdoc": {
    "kind": "dev",
    "methods": {
      "approve(address,uint256)": {
        "details": "See {IERC721-approve}."
      },
      "balanceOf(address)": {
        "details": "See {IERC721-balanceOf}."
      },
      "getApproved(uint256)": {
        "details": "See {IERC721-getApproved}."
      },
      "isApprovedForAll(address,address)": {
        "details": "See {IERC721-isApprovedForAll}."
      },
      "name()": {
        "details": "See {IERC721Metadata-name}."
      },
      "ownerOf(uint256)": {
        "details": "See {IERC721-ownerOf}."
      },
      "safeTransferFrom(address,address,uint256)": {
        "details": "See {IERC721-safeTransferFrom}."
      },
      "safeTransferFrom(address,address,uint256,bytes)": {
        "details": "See {IERC721-safeTransferFrom}."
      },
      "setApprovalForAll(address,bool)": {
        "details": "See {IERC721-setApprovalForAll}."
      },
      "symbol()": {
        "details": "See {IERC721Metadata-symbol}."
      },
      "tokenByIndex(uint256)": {
        "details": "See {IERC721Enumerable-tokenByIndex}."
      },
      "tokenOfOwnerByIndex(address,uint256)": {
        "details": "See {IERC721Enumerable-tokenOfOwnerByIndex}."
      },
      "totalSupply()": {
        "details": "See {IERC721Enumerable-totalSupply}."
      },
      "transferFrom(address,address,uint256)": {
        "details": "See {IERC721-transferFrom}."
      }
    },
    "version": 1
  },
  "userdoc": {
    "kind": "user",
    "methods": {},
    "version": 1
  }
}